:100000000C945D000C9485000C9485000C94850084
:100010000C9485000C9485000C9485000C9485004C
:100020000C9485000C9485000C9485000C9485003C
:100030000C9485000C9485000C9485000C9485002C
:100040000C948C030C9485000C94FC030C94D60344
:100050000C9485000C9485000C9485000C9485000C
:100060000C942E040C94850000000008000201008E
:100070000003040700000000000000000000000072
:10008000250028002B0000000000240027002A0083
:10009000040404040404040402020202020203032E
:1000A0000303030301020408102040800102040836
:1000B00010200102040810204D0511241FBECFEFAF
:1000C000D8E0DEBFCDBF11E0A0E0B1E0E4EEFCE09F
:1000D00002C005900D92AA32B107D9F722E0AAE238
:1000E000B1E001C01D92A037B207E1F710E0CDE505
:1000F000D0E004C02197FE010E946A06CC35D107EA
:10010000C9F70E9486050C9470060C94000090E0DC
:10011000FC01EC55FF4F249180579F4FFC018491C7
:10012000882399F090E0880F991FFC01EA57FF4F50
:10013000A591B491FC01E458FF4F859194918FB73C
:10014000F894EC91E22BEC938FBF08950895CF9330
:10015000DF93AC01E091BC01F091BD013097F1F06B
:100160009091BB018091BA019817C0F090E0292FBF
:1001700030E02617370754F4D901A65DBE4F240F8F
:10018000351FE90128812C939F5FF1CF1092BB01AD
:100190006093BA01CB01DF91CF910994DF91CF91A8
:1001A0000895AF92BF92CF92DF92EF92FF920F939A
:1001B0001F93CF93DF936C017B018B01040F151FFD
:1001C000EB015E01AE18BF08C017D10759F0699165
:1001D000D601ED91FC910190F081E02DC6010995C9
:1001E000892B79F7C501DF91CF911F910F91FF9076
:1001F000EF90DF90CF90BF90AF900895FC01538DAA
:10020000448D252F30E0842F90E0821B930B5417F0
:1002100010F0CF96089501970895FC01918D828D7D
:10022000981761F0A28DAE0FBF2FB11D5D968C9116
:10023000928D9F5F9F73928F90E008958FEF9FEF55
:100240000895FC01918D828D981731F0828DE80F11
:10025000F11D858D90E008958FEF9FEF0895FC01CB
:10026000918D228D892F90E0805C9F4F821B910998
:100270008F739927089587EC91E00E942F0121E068
:10028000892B09F420E0822F089580E090E0892BEB
:1002900029F00E943B0181110C9400000895FC019B
:1002A000A48DA80FB92FB11DA35ABF4F2C91848DD7
:1002B00090E001968F739927848FA689B7892C9334
:1002C000A089B1898C91837080648C93938D848D87
:1002D000981306C00288F389E02D80818F7D80838A
:1002E0000895EF92FF920F931F93CF93DF93EC014A
:1002F00081E0888F9B8D8C8D98131AC0E889F989CD
:10030000808185FF15C09FB7F894EE89FF896083CF
:10031000E889F98980818370806480839FBF81E050
:1003200090E0DF91CF911F910F91FF90EF90089592
:10033000F62E0B8D10E00F5F1F4F0F731127E02E6D
:100340008C8D8E110CC00FB607FCFACFE889F989A5
:10035000808185FFF5CFCE010E944F01F1CFEB8D5B
:10036000EC0FFD2FF11DE35AFF4FF0829FB7F89479
:100370000B8FEA89FB8980818062CFCFCF93DF9397
:10038000EC01888D8823B9F0AA89BB89E889F989AD
:100390008C9185FD03C0808186FD0DC00FB607FCE2
:1003A000F7CF8C9185FFF2CF808185FFEDCFCE0115
:1003B0000E944F01E9CFDF91CF91089590E0FC01B9
:1003C000E859FF4F2491FC01EC55FF4F3491FC019B
:1003D000E057FF4FE491EE23C9F0222339F0233098
:1003E00001F1A8F4213019F1223029F1F0E0EE0FEB
:1003F000FF1FE458FF4FA591B4918FB7F894EC918B
:10040000611126C030953E233C938FBF089527305D
:10041000A9F02830C9F0243049F7809180008F7D01
:1004200003C0809180008F7780938000DFCF84B5F8
:100430008F7784BDDBCF84B58F7DFBCF8091B000FB
:100440008F778093B000D2CF8091B0008F7DF9CFAD
:100450003E2BDACF85ED8093BC008091BC0084FDFB
:10046000FCCF1092B701089520916A01260F33271F
:10047000331F21323105ECF42091B701FC0190E0EB
:1004800080E0243069F082E00895A0916A01219112
:10049000AC01465B5E4FA40FB52FB11D2C930196A6
:1004A000861798F380916A01680F60936A0180E073
:1004B000089581E008950895E091BB018091BA010B
:1004C000E81730F4F0E0E65DFE4F808190E008959B
:1004D0008FEF9FEF08959091BB018091BA012FEFAC
:1004E0003FEF981748F4E92FF0E0E65DFE4F2081DA
:1004F00030E09F5F9093BB01C90108958091BA01DC
:100500009091BB01891B990B0895CF93DF93CB0189
:10051000EA01642F0E943402CE01DF91CF91089549
:10052000CF93DF931F92CDB7DEB7698361E0CE0131
:1005300001960E94340281E090E00F90DF91CF910C
:10054000089590E080E008958F929F92AF92BF92BD
:100550000F931F93CF93DF93CDB7DEB7A1970FB65D
:10056000F894DEBF0FBECDBF19A2423008F44AE0B6
:100570008E010F5D1F4F842E912CB12CA12CA50153
:1005800094010E944806E62FB901CA01EA3044F5F9
:10059000E05DD801EE938D01232B242B252B79F7D9
:1005A00090E080E0109769F0FD0101900020E9F7EC
:1005B0003197AF014A1B5B0BBD0187EC91E00E94B4
:1005C000D100A1960FB6F894DEBF0FBECDBFDF916C
:1005D000CF911F910F91BF90AF909F908F900895F2
:1005E000E95CD7CF42E050E066E271E087EC91E051
:1005F0000C94D100CF92DF92EF92FF92CF93DF93D2
:100600000E94F2028091BA019091BB01891B990B63
:10061000181619060CF584E692E00E946B0290937E
:100620000101809300016C01990FEE08FF084AE078
:10063000C701B601F7FE0DC06DE287EC91E00E94A4
:10064000710166277727CB016C197D098E099F09F7
:100650004AE00E94A402D4CFC0910001D0910101D0
:1006600083E00E948700209751F460E083E0DF91EF
:10067000CF91FF90EF90DF90CF900C94DE01CF3FB1
:10068000D10511F461E0F2CFEBE6F0E0E491E33064
:1006900049F140F4E130B1F0E230F9F0C038D10571
:1006A0008CF7E3CFE73041F1E83071F1E430B1F796
:1006B00080918000806280938000D0938B00C093F3
:1006C0008A0004C084B5806884BDC7BDDF91CF9126
:1006D000FF90EF90DF90CF90089584B5806284BD45
:1006E000C8BDF4CF80918000806880938000D09353
:1006F0008900C0938800EACF8091B0008068809321
:10070000B000C093B300E2CF8091B00080628093CC
:10071000B000C093B400DACF1F920F920FB60F92C1
:1007200011242F933F938F939F93AF93BF93809107
:10073000C3019091C401A091C501B091C60130914F
:10074000C20123E0230F2D3758F50196A11DB11DDD
:100750002093C2018093C3019093C401A093C5016B
:10076000B093C6018091BE019091BF01A091C001DC
:10077000B091C1010196A11DB11D8093BE0190935E
:10078000BF01A093C001B093C101BF91AF919F91F0
:100790008F913F912F910F900FBE0F901F90189542
:1007A00026E8230F0296A11DB11DD2CF1F920F92F2
:1007B0000FB60F9211242F933F934F935F936F9334
:1007C0007F938F939F93AF93BF93EF93FF9387ECA8
:1007D00091E00E944F01FF91EF91BF91AF919F91E6
:1007E0008F917F916F915F914F913F912F910F90DA
:1007F0000FBE0F901F9018951F920F920FB60F9279
:1008000011242F938F939F93EF93FF93E091D70140
:10081000F091D8018081E091DD01F091DE0182FD4F
:100820001BC090818091E0018F5F8F732091E10167
:10083000821741F0E091E001F0E0E953FE4F958F1F
:100840008093E001FF91EF919F918F912F910F90F5
:100850000FBE0F901F9018958081F4CF1F920F92BA
:100860000FB60F9211242F933F934F935F936F9383
:100870007F938F939F93AF93BF93EF93FF93809159
:10088000B900887F803609F44AC0F0F5883209F44F
:10089000A7C018F5803109F49BC0B8F4882309F487
:1008A000F9C0883009F494C0FF91EF91BF91AF91E6
:1008B0009F918F917F916F915F914F913F912F9178
:1008C0000F900FBE0F901F901895883109F488C0C3
:1008D000803251F780938D0114C0803409F49DC09B
:1008E00040F48033B9F38833F9F680938D0185ECB9
:1008F000B0C0803509F485C0883509F496C08834C5
:1009000099F60E942A02D0CF883909F48CC038F5B4
:10091000883729F050F4883611F0803729F683E0C3
:100920008093B70110928C0157C0883809F47BC0BE
:10093000803919F0803809F0B7CF80918C0180326E
:1009400008F071C0E0918C0181E08E0F80938C01E2
:100950008091BB00F0E0E459FE4F80833DC0803BB6
:1009600039F0E0F4803A09F479C0883A09F09CCF74
:1009700084E08093B70110926B0110926A01E091BC
:10098000B301F091B401099580916A0181110FC002
:1009900081E080936A0110924A0109C0803C09F409
:1009A000A6CF883C09F4A3CF883B09F07DCFE09126
:1009B0006B0181E08E0F80936B01F0E0E65BFE4FF0
:1009C00080818093BB0090916B0180916A0129C066
:1009D0008091B0018093BB0085EC8093BC0064CF14
:1009E0009091AF018091AE01981758F5E091AF0159
:1009F00081E08E0F8093AF01F0E0E257FE4F8081DF
:100A0000E9CFE091AF0181E08E0F8093AF0180913B
:100A1000BB00F0E0E257FE4F80839091AF018091E0
:100A2000AE019817C8F285E8D8CFE091AF0181E018
:100A30008E0F8093AF018091BB00F0E0E257FE4F34
:100A400080838091B60181115CCF81E08093B501F4
:100A500084EA8093BC001092B70126CF85EC809386
:100A6000BC001092B70180918C01803230F4E0918B
:100A70008C01F0E0E459FE4F108260918C0170E02F
:100A8000E091B101F091B2018CE691E009951092EC
:100A90008C010ACF10928D0134CFE7ECF1E0138284
:100AA000128288EE93E0A0E0B0E084839583A68371
:100AB000B78326E031E03183208325EC30E03587B1
:100AC000248724EC30E03787268720EC30E0318B18
:100AD000208B21EC30E0338B228B22EC30E0358B05
:100AE000248B26EC30E0378B268B118E128E138EE2
:100AF000148EE4E6F2E01382128284839583A68347
:100B0000B78388E191E0918380830895789484B5D8
:100B1000826084BD84B5816084BD85B5826085BDF9
:100B200085B5816085BD80916E00816080936E0087
:100B30001092810080918100826080938100809179
:100B4000810081608093810080918000816080932A
:100B500080008091B10084608093B1008091B000EA
:100B600081608093B00080917A00846080937A00E5
:100B700080917A00826080937A0080917A0081600F
:100B800080937A0080917A00806880937A00109236
:100B9000C10083E00E9487001092BB011092BA014D
:100BA0001092B9011092B8011092B70181E08093C0
:100BB000B6011092B50161E082E10E94DE0161E0C0
:100BC00083E10E94DE018091B9008E7F8093B9009D
:100BD0008091B9008D7F8093B90088E48093B8003C
:100BE00085E48093BC0086EA90E09093B401809302
:100BF000B30187EA90E09093B2018093B10182E261
:100C00008093BA008AEF92E09093BD018093BC017B
:100C1000E091D701F091D80182E08083E091D30187
:100C2000F091D4011082E091D501F091D6018FECC2
:100C300080831092DF01E091DB01F091DC0186E01E
:100C40008083E091D901F091DA0180818061808315
:100C5000E091D901F091DA01808188608083E09190
:100C6000D901F091DA01808180688083E091D90117
:100C7000F091DA0180818F7D8083C0E0D0E0209701
:100C8000F1F30E943B018823D1F30E940000F7CFCB
:100C9000A1E21A2EAA1BBB1BFD010DC0AA1FBB1F80
:100CA000EE1FFF1FA217B307E407F50720F0A21BF2
:100CB000B30BE40BF50B661F771F881F991F1A945F
:100CC00069F760957095809590959B01AC01BD0189
:100CD000CF010895EE0FFF1F0590F491E02D0994C8
:040CE000F894FFCFB6
:100CE400FFFF000000007101D100FE00BE012F01D2
:100CF4000D0121010000000090028502A1025B02A7
:0A0D04007E026B025C020D0A000083
:00000001FF
