:100000000C9458000C9480000C9480000C94800098
:100010000C9480000C9480000C9480000C94800060
:100020000C9480000C9480000C9480000C94800050
:100030000C9480000C9480000C9480000C94800040
:100040000C94AA010C9480000C9480000C94800005
:100050000C9480000C9480000C9480000C94800020
:100060000C94F4010C94800000000000250028008E
:100070002B00040404040404040402020202020229
:10008000030303030303010204081020408001025C
:1000900004081020010204081020000000080002DB
:1000A00001000003040700000000000000002C0411
:1000B00011241FBECFEFD8E0DEBFCDBF11E0A0E01E
:1000C000B1E0EAE8F8E002C005900D92A431B10772
:1000D000D9F721E0A4E1B1E001C01D92AD3DB20726
:1000E000E1F710E0C8E5D0E004C02197FE010E94CE
:1000F0003D04C735D107C9F70E9413030C9443048C
:100100000C94000090E0FC01E656FF4F2491FC01A6
:10011000EA57FF4F3491FC01EE58FF4FE491EE2374
:10012000B1F0222339F02330E9F090F4213001F1CD
:10013000223011F1F0E0EE0FFF1FE859FF4FA591BB
:10014000B4918FB7F894EC913E2B3C938FBF0895F8
:100150002730A9F02830C9F0243061F78091800061
:100160008F7D03C0809180008F7780938000E2CFE5
:1001700084B58F7784BDDECF84B58F7DFBCF809132
:10018000B0008F778093B000D5CF8091B0008F7D85
:10019000F9CF089508953FB7F89480917C0190912C
:1001A0007D01A0917E01B0917F0126B5A89B05C07D
:1001B0002F3F19F00196A11DB11D3FBFBA2FA92FE6
:1001C000982F8827BC01CD01620F711D811D911DE3
:1001D00042E0660F771F881F991F4A95D1F708954F
:1001E00085ED8093BC008091BC0084FDFCCF109213
:1001F000AC01089520915401260F3327331F21327B
:100200003105ECF42091AC01FC0190E080E0243059
:1002100069F082E00895A09154012191AC014C5CF9
:100220005E4FA40FB52FB11D2C930196861798F33E
:1002300080915401680F6093540180E0089581E03B
:1002400008950895E091850180918401E81730F4C4
:10025000F0E0EC5EFE4F808190E008958FEF9FEF1D
:10026000089590918501809184012FEF3FEF9817B9
:1002700048F4E92FF0E0EC5EFE4F208130E09F5F14
:1002800090938501C9010895809184019091850121
:10029000891B990B0895CF92DF92EF92FF920F93F3
:1002A0001F93CF93DF937C01CB018A012091AD0195
:1002B000222389F0EB016B01C40ED51ECC15DD05A0
:1002C00069F06991D701ED91FC910190F081E02DE9
:1002D000C7010995F3CF642F0E94FA00C801DF918E
:1002E000CF911F910F91FF90EF90DF90CF900895E5
:1002F000CF93DF931F92CDB7DEB769832091AD0115
:100300002223F9F02091D001203258F021E030E092
:10031000FC013383228390E080E00F90DF91CF9146
:1003200008958091AE01E82FF0E0E155FE4F9981EC
:1003300090838F5F8093AE018093D00181E090E045
:10034000ECCF61E0CE0101960E94FA00F7CF90E079
:1003500080E008951F920F920FB60F9211242F93F1
:100360003F938F939F93AF93BF9380917801909128
:100370007901A0917A01B0917B013091770123E05E
:10038000230F2D3758F50196A11DB11D209377013C
:100390008093780190937901A0937A01B0937B01C7
:1003A00080917C0190917D01A0917E01B0917F01AF
:1003B0000196A11DB11D80937C0190937D01A093B6
:1003C0007E01B0937F01BF91AF919F918F913F913B
:1003D0002F910F900FBE0F901F90189526E8230FB6
:1003E0000296A11DB11DD2CF1F920F920FB60F9290
:1003F00011242F933F934F935F936F937F938F932A
:100400009F93AF93BF93EF93FF938091B900887F41
:10041000803609F44AC0F0F5883209F4A7C018F50F
:10042000803109F49BC0B8F4882309F4F9C08830FE
:1004300009F494C0FF91EF91BF91AF919F918F917B
:100440007F916F915F914F913F912F910F900FBED0
:100450000F901F901895883109F488C0803251F7A9
:100460008093AA0114C0803409F49DC040F4803305
:10047000B9F38833F9F68093AA0185ECB0C08035D2
:1004800009F485C0883509F496C0883499F60E942D
:10049000F000D0CF883909F48CC038F5883729F0BE
:1004A00050F4883611F0803729F683E08093AC0150
:1004B0001092760157C0883809F47BC0803919F052
:1004C000803809F0B7CF80917601803208F071C092
:1004D000E091760181E08E0F809376018091BB00E0
:1004E000F0E0EA5AFE4F80833DC0803B39F0E0F4F3
:1004F000803A09F479C0883A09F09CCF84E080936F
:10050000AC011092550110925401E0918201F091DA
:10051000830109958091540181110FC081E080937E
:1005200054011092340109C0803C09F4A6CF883CE4
:1005300009F4A3CF883B09F07DCFE091550181E01C
:100540008E0F80935501F0E0EC5CFE4F808180932C
:10055000BB00909155018091540129C08091870181
:100560008093BB0085EC8093BC0064CF9091A9017F
:100570008091A801981758F5E091A90181E08E0FAC
:100580008093A901F0E0E857FE4F8081E9CFE09128
:10059000A90181E08E0F8093A9018091BB00F0E05A
:1005A000E857FE4F80839091A9018091A801981788
:1005B000C8F285E8D8CFE091A90181E08E0F809341
:1005C000A9018091BB00F0E0E857FE4F8083809145
:1005D000AB0181115CCF81E08093860184EA809336
:1005E000BC001092AC0126CF85EC8093BC00109229
:1005F000AC0180917601803230F4E0917601F0E038
:10060000EA5AFE4F10826091760170E0E09180011D
:10061000F091810186E591E00995109276010ACF6B
:100620001092AA0134CF789484B5826084BD84B5D9
:10063000816084BD85B5826085BD85B5816085BDDD
:1006400080916E00816080936E0010928100809195
:10065000810082608093810080918100816080931D
:100660008100809180008160809380008091B10042
:1006700084608093B1008091B00081608093B0006D
:1006800080917A00846080937A0080917A00826001
:1006900080937A0080917A00816080937A008091C3
:1006A0007A00806880937A001092C10010928501D0
:1006B000109284011092AE011092D0011092AC0100
:1006C00081E08093AB011092860182E10E9482005A
:1006D00083E10E9482008091B9008E7F8093B900EF
:1006E0008091B9008D7F8093B90088E48093B80031
:1006F00085E48093BC0089EC90E090938301809323
:1007000082018AEC90E0909381018093800101E462
:1007100011E091E1792E25EE622E35EC532EC0E0EA
:10072000D0E042E0442E33243A9400937C00809140
:100730007A00806480937A0080917A0086FDFCCFF5
:100740008091780060917900762F682F7093010175
:10075000609300011093AD017092CF011092AE0131
:100760001092D00181ED91E00E9478019091D0012A
:100770009132D0F58091AC018111FCCF4092AC0157
:100780001093AB013092AA011092A9019093A80195
:10079000EFEAF1E0A8E8B1E0981357C010928701A2
:1007A00080918701826280938701809186018130E8
:1007B00009F04FC010928601809187018093BB00A1
:1007C0008091BC0083FDF8CF5092BC008091AC01B9
:1007D0008230E1F38091AA018F3F31F08091AA012C
:1007E000803211F08091AA011092AE011092D001D6
:1007F0001092AD010E94CB004B015C0184EFC82E2A
:10080000DD24D394E12CF12C0E94CB0068197909E6
:100810008A099B09683E734081059105A8F321E090
:10082000C21AD108E108F10888EE880E83E0981E0C
:10083000A11CB11CC114D104E104F10429F72097D3
:1008400009F473CF0E94000070CF21912D938F5F28
:10085000A3CF6092BC00BACFE1EDF1E01382128227
:1008600088EE93E0A0E0B0E084839583A683B7830D
:1008700086E091E0918380830895EE0FFF1F05903D
:0A088000F491E02D0994F894FFCFE5
:10088A00FFFF0000000078014B01A701210144018C
:04089A003101220105
:107E0000112484B714BE81FFF0D085E080938100F7
:107E100082E08093C00088E18093C10086E0809377
:107E2000C20080E18093C4008EE0C9D0259A86E02C
:107E300020E33CEF91E0309385002093840096BBD3
:107E4000B09BFECF1D9AA8958150A9F7CC24DD24C4
:107E500088248394B5E0AB2EA1E19A2EF3E0BF2EE7
:107E6000A2D0813461F49FD0082FAFD0023811F036
:107E7000013811F484E001C083E08DD089C08234E0
:107E800011F484E103C0853419F485E0A6D080C0E4
:107E9000853579F488D0E82EFF2485D0082F10E0AE
:107EA000102F00270E291F29000F111F8ED06801E7
:107EB0006FC0863521F484E090D080E0DECF843638
:107EC00009F040C070D06FD0082F6DD080E0C81688
:107ED00080E7D80618F4F601B7BEE895C0E0D1E017
:107EE00062D089930C17E1F7F0E0CF16F0E7DF06D8
:107EF00018F0F601B7BEE89568D007B600FCFDCFD4
:107F0000A601A0E0B1E02C9130E011968C91119780
:107F100090E0982F8827822B932B1296FA010C0160
:107F200087BEE89511244E5F5F4FF1E0A038BF0790
:107F300051F7F601A7BEE89507B600FCFDCF97BE46
:107F4000E89526C08437B1F42ED02DD0F82E2BD052
:107F50003CD0F601EF2C8F010F5F1F4F84911BD097
:107F6000EA94F801C1F70894C11CD11CFA94CF0C13
:107F7000D11C0EC0853739F428D08EE10CD085E9AC
:107F80000AD08FE07ACF813511F488E018D01DD067
:107F900080E101D065CF982F8091C00085FFFCCF94
:107FA0009093C60008958091C00087FFFCCF809118
:107FB000C00084FD01C0A8958091C6000895E0E648
:107FC000F0E098E1908380830895EDDF803219F02E
:107FD00088E0F5DFFFCF84E1DECF1F93182FE3DFCA
:107FE0001150E9F7F2DF1F91089580E0E8DFEE27F6
:047FF000FF270994CA
:027FFE00040479
:0400000300007E007B
:00000001FF
